:100000000C940D010C9435010C9435010C943501C0
:100010000C9435010C9435010C9435010C94350188
:100020000C9435010C9435010C9454080C94C308BD
:100030000C9435010C9435010C9435010C94350168
:100040000C9435010C9435010C9435010C94350158
:100050000C9435010C9435010C9435010C94F50A7F
:100060000C9435010C94650B0C943F0B0C943501EA
:100070000C9435010C9435010C9435010C94350128
:100080000C9435010C9435010C9435010C94350118
:100090000C9435010C9435010C9435010C94350108
:1000A0000C9435010C9435010C943501696E707512
:1000B0007420627566666572206F766572666C6F15
:1000C0007700756E6B6E6F776E20636F6D6D616E0E
:1000D0006400737461636B206F766572666C6F7712
:1000E00000737461636B20756E646572666C6F7704
:1000F000006E756D626572206F766572666C6F77E3
:10010000003F071907A7066906F507ED0400000080
:10011000000000250028002B002E00310000000008
:1001200000240027002A002D0030000404040404E9
:10013000030405020202020403020202020606068A
:100140000606060404020202040404080201104028
:100150008040102040804080080204018040201030
:100160000201108010204040201214150D0A0D0AC3
:100170005441445441532053747261696E20476165
:10018000756765204D6F7573652050726F746F745D
:10019000797065002D3E00000D0A3E003A00457260
:1001A000726F723A00080B0002020200000904009C
:1001B00000010202000005240010010524010101D4
:1001C00004240206052406000107058103100040EF
:1001D00009040100020A00000007050202400000B5
:1001E000070583024000000403090412010002EF26
:1001F0000201404123378000010102030141726482
:1002000075696E6F204C4C430041726475696E6F66
:10021000204D6963726F0000970B11241FBECFEF52
:10022000DAE0DEBFCDBF11E0A0E0B1E0ECEFFBE132
:1002300002C005900D92A234B107D9F722E0A2E4E2
:10024000B1E001C01D92A73AB207E1F711E0CDE09D
:10025000D1E004C02197FE010E94F60DCC30D107F9
:10026000C9F70E94D40B0C94FC0D0C940000FC0107
:100270008091B901882311F13FB7F89482E080930F
:10028000E9002091F200822F90E01816190614F46C
:1002900081E090E0882339F0289A44E64093B80141
:1002A0004091F1004083222339F02091F200211186
:1002B00003C02BE62093E8003FBF08958FEF9FEF28
:1002C00008952FB7F89483E08093E9009091E800B7
:1002D000892F807295FF04C09091F20080E4891B01
:1002E0002FBF08958091B00181110DC082E08093ED
:1002F000AC0184E08093AD011092AF011092AE0189
:1003000081E08093B0018CEA91E00895CF93DF9370
:100310001F92CDB7DEB76983DC01ED91FC910280BD
:10032000F381E02D41E050E0BE016F5F7F4F099502
:100330000F90DF91CF91089583E08093E900809141
:10034000F200882319F08AE38093E80008950E9460
:10035000610190E00895CF93DF931F92CDB7DEB790
:10036000FC018485958597FD08C02FEF3FEF358709
:1003700024870F90DF91CF910895CE0101960E94BE
:100380003701019719F4898190E0F3CF8FEF9FEF48
:10039000F0CF0F931F93CF93DF931F92CDB7DEB7AC
:1003A0008C01FC018485958597FF0BC0CE010196D9
:1003B0000E943701019771F4898190E0F8019587D7
:1003C0008487F801848595850F90DF91CF911F91E7
:1003D0000F9108958FEF9FEFF1CFFC0184859585F4
:1003E00097FD0BC09FB7F89482E08093E90080915D
:1003F000F2009FBF90E0019608959FB7F89482E0C5
:100400008093E9008091F2009FBF90E008954091B1
:10041000A6015091A7012091A4013091A501421796
:100420005307B4F49091E8009570E1F39091E800DF
:1004300092FD19C08093F1008091A6019091A701CF
:1004400001968F739927892B19F48EEF8093E8001A
:100450008091A6019091A70101969093A7018093A6
:10046000A60181E0089580E00895EF92FF920F9336
:100470001F93CF93DF93F82E192FE62E042F81E0E0
:10048000860F880F0E94070283E00E940702CF2D8B
:10049000D12FEC0EFD2EF11CCE15DF05B9F007FFB4
:1004A00013C0FE0184910E940702182F80E00E9471
:1004B0000702812321968111EFCFDF91CF911F9108
:1004C0000F91FF90EF9008958881EDCF81E0F5CFF7
:1004D000DF92EF92FF920F931F93CF93DF93D82E6B
:1004E0008A01EB017B01E40EF51ECE15DF0559F004
:1004F000D7FE12C0FE0184910E940702219681114D
:10050000F4CF0FEF1FEFC801DF91CF911F910F9133
:10051000FF90EF90DF9008958881EECF0F931F93A7
:10052000CF93DF931F92CDB7DEB782E0898342E499
:1005300050E065EA71E080E80E9468020E94720162
:10054000DC0112960D911C910115110589F0D8015D
:10055000ED91FC910280F381E02DBE016F5F7F4F32
:10056000C801099597FD04C0F80100851185ECCFFD
:1005700089810F90DF91CF911F910F910895615064
:1005800030F02091F100FC0120830196F8CF289AE9
:1005900084E68093B80108953FB7F8948091A00154
:1005A0009091A101A091A201B091A30126B5A89BB1
:1005B00005C02F3F19F00196A11DB11D3FBFBA2FF5
:1005C000A92F982F8827BC01CD01620F711D811DB5
:1005D000911D42E0660F771F881F991F4A95D1F73A
:1005E0000895CF92DF92EF92FF920E94CC026B01AE
:1005F0007C010E94CC026C197D098E099F09683E1E
:10060000734081059105A8F3FF90EF90DF90CF90A4
:1006100008958F929F92AF92BF92CF92DF92EF9206
:10062000FF920F931F93CF93DF936C017B018A019D
:1006300080910B01882309F458C08091B901882367
:1006400009F453C08091AB0180FF05C08091E000A8
:1006500082608093E000E801B12C8AEFA82E93E03D
:10066000892E2AE3922E209711F4BB20B9F10E9423
:100670006101811106C0AA94AA20B9F10E94F10279
:10068000F2CF8C171D0611F00CF08C2F9FB7F89449
:100690008092E9002091E80025FD02C09FBFE3CFD2
:1006A000282F30E0C21BD30BF701815020F041917D
:1006B0004093F100FACFE20EF31EBB2021F090929E
:1006C000E800B12CEBCF8091E80085FDE7CF909258
:1006D000E800BB24B394209709F3F3CF5D9A84E636
:1006E0008093AA01101611063CF081E090E0F6011B
:1006F0009383828310E000E0C801DF91CF911F91C6
:100700000F91FF90EF90DF90CF90BF90AF909F90B0
:100710008F900895DC01ED91FC910190F081E02D26
:100720000994EF92FF920F931F93CF93DF938C0165
:100730007B01D0E0C0E0F701EC0FFD1F6491662360
:1007400061F0D801ED91FC910190F081E02DC8019C
:100750000995892B11F02196EECFCE01DF91CF9133
:100760001F910F91FF90EF900895AF92BF92CF929B
:10077000DF92EF92FF920F931F93CF93DF936C0161
:100780007B018B01040F151FEB015E01AE18BF0842
:10079000C017D10759F06991D601ED91FC910190F4
:1007A000F081E02DC6010995892B79F7C501DF910C
:1007B000CF911F910F91FF90EF90DF90CF90BF905E
:1007C000AF900895FC01538D448D252F30E0842F88
:1007D00090E0821B930B541710F0CF960895019769
:1007E0000895FC01918D828D981761F0A28DAE0F56
:1007F000BF2FB11D5D968C91928D9F5F9F73928FDD
:1008000090E008958FEF9FEF0895FC01918D828D08
:10081000981731F0828DE80FF11D858D90E00895D5
:100820008FEF9FEF0895FC01918D228D892F90E02D
:10083000805C9F4F821B91098F73992708958AE0EE
:1008400092E00E94130421E0892B09F420E0822F1A
:10085000089580E090E0892B29F00E941F04811107
:100860000C9400000895FC01A48DA80FB92FB11DB0
:10087000A35ABF4F2C91848D90E001968F739927D6
:10088000848FA689B7892C93A089B1898C918274B1
:100890008C93938D848D981306C00288F389E02D84
:1008A00080818F7D80830895EF92FF920F931F9335
:1008B000CF93DF93EC0181E0888F9B8D8C8D981313
:1008C00019C0E889F989808185FF14C09FB7F89421
:1008D000EE89FF896083E889F98980818274808349
:1008E0009FBF81E090E0DF91CF911F910F91FF902A
:1008F000EF900895F62E0B8D10E00F5F1F4F0F73D2
:100900001127E02E8C8D8E110CC00FB607FCFACF8C
:10091000E889F989808185FFF5CFCE010E943304F3
:10092000F1CFEB8DEC0FFD2FF11DE35AFF4FF0825D
:100930009FB7F8940B8FEA89FB8980818062CFCFC3
:10094000CF93DF93EC01888D8823B9F0AA89BB8906
:10095000E889F9898C9185FD03C0808186FD0DC0F1
:100960000FB607FCF7CF8C9185FFF2CF808185FF12
:10097000EDCFCE010E943304E9CFDF91CF910895EE
:10098000982F80ED890F8A3070F08FE9890F8A31B6
:1009900018F489EA890F08958FEB890F8A3110F4D2
:1009A00089ECF8CF8FEF0895FC0185E095E161E2D5
:1009B0002191222389F03FE9320F3A3108F4205285
:1009C000689FA001699F500D1124022E000C330B6B
:1009D000C90184279527ECCF0895E0916D01F0912E
:1009E0006E010994FB0101900020E9F73197AF01F6
:1009F000461B570BDC01ED91FC910280F381E02D49
:100A000009948F929F92AF92BF92EF92FF920F93B1
:100A10001F93CF93DF93CDB7DEB7A1970FB6F894AE
:100A2000DEBF0FBECDBF7C01FA01CB0119A222307F
:100A300008F42AE08E010F5D1F4F822E912CB12CFD
:100A4000A12CBF01A50194010E94D40DF901CA0196
:100A50006A300CF5605DD8016E938D01232B242B39
:100A6000252B79F790E080E0109721F0BD01C701B8
:100A70000E94F204A1960FB6F894DEBF0FBECDBF60
:100A8000DF91CF911F910F91FF90EF90BF90AF90AA
:100A90009F908F900895695CDECFCF92DF92EF92A6
:100AA000FF920F931F93CF93DF936B01770FEE08A5
:100AB000FF08F7FE1BC0EC016DE20E948A038C0167
:100AC00044275527BA014C195D096E097F092AE0B0
:100AD000CE010E940105800F911FDF91CF911F91E0
:100AE0000F91FF90EF90DF90CF9008952AE0B7012B
:100AF000A601DF91CF911F910F91FF90EF90DF90B2
:100B0000CF900C940105EF92FF920F931F93CF9318
:100B1000DF932091990130919A012115310509F453
:100B200058C0EB01833059F198F48230C9F0BE010E
:100B3000C9010E944D0560E28091990190919A014E
:100B4000DF91CF911F910F91FF90EF900C948A034A
:100B50008430C1F1853059F7C9010E949103EBCF70
:100B60006BE2C9010E948A03AE0170E060E02AE0F6
:100B70008091990190919A010E940105DCCF64E275
:100B8000C9010E948A0393E0E92EF12C0FE010E0E6
:100B90000C171D0740F070E060E080919901909182
:100BA0009A010E944D0584E0000F111F8A95E1F71C
:100BB0000F6081E0E81AF10859F7AE0170E060E0DB
:100BC00020E1D6CFCD2B09F4B6CFC9010E94F204A3
:100BD000B2CFDF91CF911F910F91FF90EF900895C9
:100BE0000F931F93CF93DF9300D0CDB7DEB79A83D7
:100BF000898384E591E00E94930D811113C00091D7
:100C00006B0110916C01F80125913491211531058A
:100C100081F089819A81F90109950E5F1F4F882320
:100C200091F380E00F900F90DF91CF911F910F9182
:100C3000089584E0F7CF682F880F770B84E591E063
:100C40000E94B30DEF92FF920F931F93CF93DF9308
:100C50008C017B01FC0111821082EA0189918823B9
:100C6000D9F00E94C004282F30E02E153F05E4F48F
:100C7000F80140815181E49EC001E59E900DF49EF3
:100C8000900D1124820F931F918380838417950701
:100C900028F781E00E941B0681E0DF91CF911F9130
:100CA0000F91FF90EF90089580E0F7CFE09152010F
:100CB000F091530121E0E434F20718F483E00E943C
:100CC0001B063297F0935301E09352019183808386
:100CD0000895DF92EF92FF920F931F93CF93DF93CC
:100CE000FC012081263249F080E0DF91CF911F91F5
:100CF0000F91FF90EF90DF900895EC017C018C0143
:100D00000F5F1F4FF70181818823C1F00E94C0044B
:100D1000D82EFFE0F81740F3F70182810E94C0044B
:100D2000F2E0EF0EF11C8031F8F690E1D99E9001CF
:100D30001124822BF80181938F01E4CF0C1B1D0B32
:100D400001500883CE010E94560681E0CECF6F92FB
:100D50007F928F929F92AF92BF92CF92DF92EF924B
:100D6000FF920F931F93CF93DF93FC0120812232D8
:100D700009F05DC07C018C010F5F1F4FEC018AE020
:100D8000782E9DE0692EF80180818823F1F04801DA
:100D9000FFEF8F1A9F0A5E019FEFA91AB90A8C35DF
:100DA00039F08883480184010F5F1F4FE501EBCFC5
:100DB000F801D180FEE6DF16E1F082E7D816D9F01F
:100DC000D1101BC080E28883E5011882C7010E9410
:100DD000560681E0DF91CF911F910F91FF90EF9028
:100DE000DF90CF90BF90AF909F908F907F906F904B
:100DF00008957882D8CF6882D6CF8D2D0E94C00406
:100E0000C82EF80182810E94C004FFE0FC1568F042
:100E1000803158F490E1C99E600111248C298883A7
:100E20004801E2E08E0E911CBECFD882BCCF80E09C
:100E3000D1CF1F93CF93DF9300D0CDB7DEB7FC01A6
:100E40002081243219F42181211102C010E010C048
:100E5000AC014F5F5F4F60E170E0CE0101960E94F0
:100E60002206182F882391F389819A810E945606C1
:100E7000812F0F900F90DF91CF911F9108950F93C5
:100E80001F93CF93DF9300D0CDB7DEB7FC01108165
:100E90001D3211F01B3271F40196FC0120812111E9
:100EA0000BC000E0802F0F900F90DF91CF911F912A
:100EB0000F91089510E2F1CFAC016AE070E0CE012D
:100EC00001960E942206082F882359F389819A816E
:100ED000103239F01D3251F089819A810E945606F4
:100EE000E1CF97FFF9CF81E00E941B068130F0E847
:100EF0009F07C8F79195819591099A838983ECCFD3
:100F0000E0915201F091530181E0E235F80718F0C9
:100F100082E00E941B06CF010296909353018093BA
:100F200052018081918108958091520190915301E5
:100F300021E08235920718F082E00E941B06089596
:100F4000CF93DF930E94D404863825EB9207D1F12A
:100F500050F4893BFDE69F0709F43FC089379A4763
:100F600041F180E023C08E38E5EB9E0791F0883890
:100F7000FCED9F0751F18838954B99F70E94800747
:100F8000EC010E949407FC01208131812C1B3D0B58
:100F90000AC00E948007EC010E949407FC01208196
:100FA00031812C0F3D1F3183208381E0DF91CF9170
:100FB00008950E949407FC0120813181319521958B
:100FC0003109F1CF8FEF0E941B060E948007892B09
:100FD00011F45D9AEACF5D98E8CF0E948007892BD3
:100FE00011F4289AE2CF2898E0CFCF93DF930E94A4
:100FF000D4048E3D23E7920751F170F48F3825E633
:10100000920751F1893C26E6920759F18C329C45B2
:1010100059F40E94800717C08C392FE9920799F183
:1010200028F4873B9049B1F180E00EC0883025EB71
:101030009207E1F08B38954BB9F70E948007BC010D
:1010400081E00E94830581E0DF91CF9108950E94A5
:101050008007BC0182E0F5CF0E948007BC0183E0DD
:10106000F0CF0E948007BC0184E0EBCF20915201B9
:101070003091530182E591E0821B930B9595879502
:101080000E945606E0CF82E591E090935301809351
:101090005201D9CF0E949407EC01888199810E9466
:1010A000D40499838883CFCF1F920F920FB60F92EB
:1010B00011248F939F938091E1009091E100937FA1
:1010C0009093E10083FF0FC01092E90091E09093AC
:1010D000EB001092EC0092E39093ED001092B901B6
:1010E00098E09093F00082FF22C093E09093E90093
:1010F0009091F200992319F09AE39093E80090916F
:10110000AA01992341F09091AA0191509093AA01CC
:10111000911101C05D989091B801992341F090918F
:10112000B80191509093B801911101C0289884FFA3
:1011300018C08091E2008E7E81608093E2008091F1
:10114000E1008F7E8093E1008091AB018E7E806113
:101150008093AB019F918F910F900FBE0F901F90C6
:10116000189580FFF7CF8091E2008E7E806180939A
:10117000E2008091E1008E7E8093E1008091AB01DE
:101180008E7E8160E5CF1F920F920FB60F921124D1
:10119000CF92DF92EF92FF920F931F932F933F9383
:1011A0004F935F936F937F938F939F93AF93BF936F
:1011B000EF93FF93CF93DF93CDB7DEB76C97DEBF8E
:1011C000CDBF1092E9008091E80083FF25C068E060
:1011D000CE0145960E94BF0282EF8093E8008D8980
:1011E00087FF39C09091E80090FFFCCF982F907650
:1011F00009F034C19E894F89588D2F89F88C91113F
:1012000031C0803861F58091A9018093F10010927E
:10121000F1008EEF8093E8006C960FB6F894DEBF75
:101220000FBECDBFDF91CF91FF91EF91BF91AF91F5
:101230009F918F917F916F915F914F913F912F91EE
:101240001F910F91FF90EF90DF90CF900F900FBE06
:101250000F901F9018959EEF9093E800C7CF1092C3
:10126000F100D5CF913059F48111D3CF41305105E0
:1012700081F68091A9018D7F8093A901CACF933017
:1012800049F48111C6CF4130510519F68091A90169
:101290008260F2CF953041F48091E80080FFFCCF6E
:1012A00020682093E300B5CF963009F0A9C00B8DDC
:1012B0001C8D22E01092E9001092A7011092A60165
:1012C000F2122EC01092A5011092A4010E948E026B
:1012D0001F8299E09983FA8291E09E8390EA988731
:1012E0009AEF99872091A6013091A701275F3F4F80
:1012F0003C832B838D831092E9001092A7011092FA
:10130000A6011093A5010093A40149E050E0BE019D
:101310006F5F7F4F80E00E9468020E948E0279CF4B
:101320001093A5010093A4010E947201DC011296A2
:101330000D911C910115110509F451C1D801ED91D0
:10134000FC910480F581E02DBE016B5E7F4FC801EA
:101350000995009709F03EC1F80100851185EACF93
:10136000F3E0FF120EC08F89882309F440C0823059
:1013700061F440E86DE089E092E00E94350281115D
:1013800048CF81E28093EB0047CF813029F440E8D9
:101390006BE08DEF91E0F1CF833099F70E947201FD
:1013A000DC011296ED90FC908E010F5F1F4F6801DB
:1013B000E114F10479F0D701ED91FC910680F781F9
:1013C000E02DB801C7010995080F111DF701E08450
:1013D000F184EECFD8011C92F60101900020E9F7CC
:1013E0003197BF016C197D0940E0C601C6CF67EE99
:1013F00071E0FB01449150E080E80E94680209CF4F
:10140000973009F4BECF983021F481E08093F10049
:1014100000CF993009F0FDCE837009F0B2CFE7E13B
:10142000F1E081E031E096E32191222371F0809395
:10143000E9003093EB00DF0111972C912093EC0031
:101440009093ED008F5F873079F78EE78093EA0005
:101450001092EA008F898093B901DBCE8B8D9C8D31
:101460001092E9001092A7011092A6019093A50195
:101470008093A401898D811192C08E899D89913AB2
:1014800049F4813209F07DCF47E050E064E071E03B
:1014900080E0B3CF913209F074CF833269F48F8941
:1014A000988DB0E0A0E08093000190930101A0939B
:1014B0000201B0930301ADCE803269F48091E8005F
:1014C00082FFFCCF67E084E091E00E94BF028BEFD7
:1014D0008093E8009ECE823209F09BCE8F89809364
:1014E0000B01EEEFFFE7859194918B3F9C4D51F1FD
:1014F000E0E0F8E08091040190910501A0910601DF
:10150000B0910701803B9440A105B105F1F48091B1
:101510000B0180FD1AC0EE3F8AE0F80789F587E7E6
:1015200097E791838083809160008093A80188E190
:101530009BE00FB6F894A895809360000FBE90933F
:10154000600067CEEEEFFAE0D5CF808191818737DA
:10155000974709F05ECEA8958091600088618093DE
:1015600060008091A80180936000EE3F2AE0F207BE
:1015700089F08091FE0A9091FF0A9183808349CE81
:10158000808191818737980751F29093FF0A809369
:10159000FE0AC5CF1092FF0A1092FE0A3ACE0E94B0
:1015A0007201DC0112960D911C910115110509F4CF
:1015B000E8CED801ED91FC910190F081E02DBE01C3
:1015C0006B5E7F4FC8010995811123CEF80100851C
:1015D0001185EBCF181619060CF41BCED2CEF1E014
:1015E000FF12BECE6BEE71E004CF1F920F920FB6CA
:1015F0000F9211242F933F938F939F93AF93BF9399
:1016000080919C0190919D01A0919E01B0919F01BC
:1016100030919B0123E0230F2D3758F50196A11D32
:10162000B11D20939B0180939C0190939D01A093F9
:101630009E01B0939F018091A0019091A101A09182
:10164000A201B091A3010196A11DB11D8093A0013B
:101650009093A101A093A201B093A301BF91AF9178
:101660009F918F913F912F910F900FBE0F901F90E0
:10167000189526E8230F0296A11DB11DD2CF1F9207
:101680000F920FB60F9211242F933F934F935F93B6
:101690006F937F938F939F93AF93BF93EF93FF933A
:1016A0008AE092E00E943304FF91EF91BF91AF91E5
:1016B0009F918F917F916F915F914F913F912F916A
:1016C0000F900FBE0F901F9018951F920F920FB69C
:1016D0000F9211242F938F939F93EF93FF93E09199
:1016E0001A02F0911B028081E0912002F091210208
:1016F00082FD1BC09081809123028F5F8F732091A8
:101700002402821741F0E0912302F0E0E65FFD4FF2
:10171000958F80932302FF91EF919F918F912F914D
:101720000F900FBE0F901F9018958081F4CFEAEBB9
:10173000F1E01382128288EE93E0A0E0B0E08483AF
:101740009583A683B78321E231E0318320832FEF95
:101750003FEF35872487EAE0F2E013821282848328
:101760009583A683B78383E391E0918380838DEC97
:1017700090E0958784878CEC90E09787868788EC4B
:1017800090E0918B808B89EC90E0938B828B8AEC3C
:1017900090E0958B848B8EEC90E0978B868B118EEE
:1017A000128E138E148E0895789484B5826084BD51
:1017B00084B5816084BD85B5826085BD85B5816055
:1017C00085BD80916E00816080936E0010928100D3
:1017D000809181008260809381008091810081608E
:1017E000809381008091800081608093800080914F
:1017F000910082608093910080919100816080933C
:101800009100809190008160809390008091C10050
:1018100084608093C1008091C10082608093C10088
:101820008091C10081608093C1008091C30081607C
:101830008093C3008091C00082608093C00080913B
:10184000C20081608093C20080917A00846080939E
:101850007A0080917A00826080937A0080917A0089
:10186000816080937A0080917A00806880937A000A
:101870001092B9011092A9011092AB018091D7008A
:1018800081608093D70080EA8093D80089B5806119
:1018900089BD89B5826089BD09B400FEFDCF0E9473
:1018A000F1028091D8008F7C80618093D800809174
:1018B000E000807F8093E0008091E1008E7E809345
:1018C000E1008DE08093E200559A209A5D98289877
:1018D000E0911A02F0911B0282E08083E0911602EF
:1018E000F09117021082E0911802F091190280E144
:1018F000808310922202E0911E02F0911F0286E086
:101900008083E0911C02F0911D02808180618083C0
:10191000E0911C02F0911D02808188608083E0913B
:101920001C02F0911D02808180688083E0911C027E
:10193000F0911D0280818F7D808380EA97E09093F3
:101940006E0180936D018AE092E090939A018093FA
:10195000990181E091E090936C0180936B0182E5A5
:1019600091E090935301809352016CE671E085E021
:101970000E94830568E971E085E00E94830529E6FD
:1019800031E04CE651E0F901849190E0FC01E65B26
:10199000FE4F6491855D9E4FFC018491882399F0F0
:1019A00090E0880F991FFC01E35EFE4FA591B49172
:1019B000FC01E15FFE4F859194918FB7F894EC9113
:1019C000E62BEC938FBF2F5F3F4F42175307D9F69B
:1019D000559A5D9A209A289A00E010E0809199012A
:1019E00090919A01009709F440C0DC01ED91FC91BF
:1019F0000084F185E02D0995892BB9F18091990139
:101A000090919A01DC01ED91FC910284F385E02D27
:101A10000995E09198018D30D1F4AE2FB0E0A15935
:101A2000BE4F1C9210929801C0E0E93208F0C5E068
:101A30006FE671E084E00E94830564E971E085E06F
:101A40000E948305C1114EC08FE691E01FC090EE49
:101A5000980F9F3550F4E93240F491E09E0F909337
:101A60009801F0E0E159FE4F80830115110509F45A
:101A7000B5CF0E941F04882309F4B0CF0E94000054
:101A8000ADCF7C01FFEFEF1AFF0AC701FC012081F7
:101A90002032B9F32930A9F3222379F09C0179018E
:101AA000D901DC912F5F3F4FD03281F0D93071F0F6
:101AB000D111F5CF8E159F0579F468E971E085E0C5
:101AC0000E948305D2CFD111E0CFF7CF8E159F05AD
:101AD000A1F3F70111927F010E94F005C82F88231E
:101AE00091F35CF36EE971E085E00E948305EFEF0E
:101AF000EC0F67E971E0E53038F4F0E0EE0FFF1F1E
:101B0000E45FFE4F6081718185E00E9483056CE98E
:101B100071E085E00E9483056C2FCC0F770B81E08C
:101B20000E948305CACFDC012D923D924D925D92B9
:101B30006D927D928D929D92AD92BD92CD92DD92ED
:101B4000ED92FD920D931D93CD93DD93FF91EF9157
:101B50008DB78D938EB78D938FB78D93ED93FD9346
:101B6000882799270994DC01CB0181309105811DDB
:101B70002D903D904D905D906D907D908D909D90BD
:101B8000AD90BD90CD90DD90ED90FD900D911D91AB
:101B9000CD91DD91ED91FD910D90F894FEBF0FBEBA
:101BA000EDBFED91FD910994A1E21A2EAA1BBB1B7A
:101BB000FD010DC0AA1FBB1FEE1FFF1FA217B30719
:101BC000E407F50720F0A21BB30BE40BF50B661F2F
:101BD000771F881F991F1A9469F7609570958095F3
:101BE00090959B01AC01BD01CF010895EE0FFF1F41
:101BF0000590F491E02D0994F894FFCFFFFFFFFFCB
:101C000000E1000000000000F100E100D200C2008D
:101C1000AC0000C1808100000000000000860109C6
:101C200003A7019C01ED01AB01C9010000000054B4
:101C300004B503E203A0041304F103050400FFFF4D
:101C4000FFFFFFFFFFFFFFFFFFFFFFFFFFFFFFFFA4
:101C5000FFFFFFFFFFFFFFFFFFFFFFFFFFFFFFFF94
:101C6000FFFFFFFFFFFFFFFFFFFFFFFFFFFFFFFF84
:101C7000FFFFFFFFFFFFFFFFFFFFFFFFFFFFFFFF74
:101C80000C3408A90BD00BB70B320C360C0000003B
:101C900000D30C3408750D320D250D00FFFFFFFF3A
:101CA000FFFFFFFFFFFFFFFFFFFFFFFFFFFFFFFF44
:101CB000FFFFFFFFFFFFFFFFFFFFFFFFFFFFFFFF34
:101CC000FFFFFFFFFFFFFFFFFFFFFFFFFFFFFFFF24
:101CD000FFFFFFFFFFFFFFFFFFFFFFFFFFFFFFFF14
:101CE000FFFFFFFFFFFFFFFFFFFFFFFFFFFFFFFF04
:101CF000FFFFFFFFFFFFFFFFFFFFFFFFFFFFFFFFF4
:101D000080E00895EF92FF920F931F938C01E62ECF
:101D1000DC01ED91FC910480F581E02D0995F82E10
:101D2000D801ED91FC910680F781E02DC8016E2D60
:101D300009958F2D90E01F910F91FF90EF900895DE
:101D400010922402109228021092270289E491E056
:101D500090932602809325020895EF92FF920F93AD
:101D60001F93DF93CF930F92CDB7DEB789838B019B
:101D70007A0184E0BE016F5F7F4F41E050E00E9436
:101D8000DF0A84E4B801A7010E94DF0A0F90CF9117
:101D9000DF911F910F91FF90EF90089582E048E04E
:101DA00050E00E94AD0E0895FC0116821782108645
:101DB00011861286138614823496BF010E94CE0EBD
:101DC0000895DC01683810F0685829C0E62FF0E06B
:101DD00067FF13C0E058F04081E090E002C0880F38
:101DE000991FEA95E2F7809514962C911497282371
:101DF00014962C93149760E012C0EB51FD4F649140
:101E0000662319F420E030E01DC067FF08C0149677
:101E10008C9114978D7F14968C9314976F77FD0196
:101E200090E0662321F08681861709F416829F5F71
:101E300031969630B1F7CD011496BD010E94CE0EB9
:101E400021E030E0C9010895CF93DF93DC016838C9
:101E500010F0685825C0E62FF0E067FF12C0E05888
:101E6000F04081E090E002C0880F991FEA95E2F708
:101E700014962C911497282B14962C93149760E0A9
:101E80000FC0EB51FD4F64916623D9F167FF08C085
:101E900014968C911497826014968C9314976F7794
:101EA00016968C9116978617A9F117968C9117970D
:101EB000861781F118968C911897861759F1199603
:101EC0008C911997861731F11A968C911A9786176B
:101ED00009F11B968C911B978617E1F0ED01E0E06C
:101EE000F0E09E2F8E81882321F4EA0FFB1F66838A
:101EF00006C09F5F31962196E630F10591F7963046
:101F000049F481E090E013969C938E93129720E021
:101F100030E007C0CD011496BD010E94CE0E21E035
:101F200030E0C901DF91CF91089580E867E672E063
:101F300045E650E00E945A0A0895FC0180818F5FB7
:101F4000808380E86CEC72E049E150E00E945A0A1C
:101F5000089597FB092E07260AD077FD04D00CD0F0
:101F600006D000201AF4709561957F4F0895F6F71A
:101F7000909581959F4F0895AA1BBB1B51E107C007
:101F8000AA1FBB1FA617B70710F0A61BB70B881F09
:101F9000991F5A95A9F780959095BC01CD01089598
:101FA000EE0FFF1F0590F491E02D099413E0CEE6AB
:101FB000D3E004C0FE010E94D20F2296C037D107A1
:101FC000C9F7F894FFCF02000500060009000A00D7
:101FD0000100030004000700080011000E000100CA
:101FE000E10000000000000101000000007A05E3AC
:101FF0000960053F053D062C0600000000B90DE311
:1020000009580D7F0D660DE10DE50D000000008201
:102010000EE309240FE10ED40E00FFFFFFFFFFFFC8
:10202000FFFFFFFFFFFFFFFFFFFFFFFFFFFFFFFFC0
:10203000FFFFFFFFFFFFFFFFFFFFFFFFFFFFFFFFB0
:10204000FFFFFFFFFFFFFFFFFFFFFFFFFFFFFFFFA0
:10205000FFFFFFFFFFFFFFFFFFFFFFFFFFFFFFFF90
:10206000FFFFFFFFFFFFFFFFFFFFFFFFFFFFFFFF80
:10207000FFFFFFFFFFFFFFFFFFFFFFFFFFFFFFFF70
:10208000861781F118968C911897861759F1199631
:102090008C911997861731F11A968C911A97861799
:1020A00009F11B968C911B978617E1F0ED01E0E09A
:1020B000F0E09E2F8E81882321F4EA0FFB1F6683B8
:1020C00006C09F5F31962196E630F10591F7963074
:1020D00049F481E090E013969C938E93129720E050
:1020E00030E007C0CD011496BD010E94B60F21E07B
:1020F00030E0C901DF91CF91089580E867ED71E08C
:1021000045E650E00E94420B0895FC0180818F5FFC
:10211000808380E86CE372E049E150E00E94420B6A
:10212000089597FB092E07260AD077FD04D02ED0FC
:1021300006D000201AF4709561957F4F0895F6F748
:10214000909581959F4F0895A1E21A2EAA1BBB1B63
:10215000FD010DC0AA1FBB1FEE1FFF1FA217B30773
:10216000E407F50720F0A21BB30BE40BF50B661F89
:10217000771F881F991F1A9469F76095709580954D
:1021800090959B01AC01BD01CF010895AA1BBB1B1B
:1021900051E107C0AA1FBB1FA617B70710F0A61B67
:1021A000B70B881F991F5A95A9F780959095BC0188
:1021B000CD010895EE0FFF1F0590F491E02D0994D5
:1021C00012E0C0EED2E004C0FE010E94DC102296B4
:1021D000C23ED107C9F7F894FFCF02000500060000
:1021E00009000A00010003000400070008001100B4
:1021F0000E000100E10000000000000101000000ED
:10220000006404CB0A4A04290427051605000000CF
:10221000002F0ACB0AC309F409D4091D0A000000E3
:1022200000A10ECB0A400E670E4E0EC90ECD0E0059
:102230000000006A0FCB0A0C10C90FBC0F00FFFF93
:10224000FFFFFFFFFFFFFFFFFFFFFFFFFFFFFFFF9E
:10225000FFFFFFFFFFFFFFFFFFFFFFFFFFFFFFFF8E
:10226000FFFFFFFFFFFFFFFFFFFFFFFFFFFFFFFF7E
:10227000FFFFFFFFFFFFFFFFFFFFFFFFFFFFFFFF6E
:1070000055C000006EC000006CC000006AC00000E7
:1070100068C0000066C0000064C0000062C00000DC
:1070200060C000005EC00000FCC400005AC0000048
:1070300058C0000056C0000054C0000052C00000FC
:1070400050C000005DC000004CC000004AC00000FD
:1070500048C0000046C0000044C0000042C000001C
:1070600040C000003EC000003CC000003AC000002C
:1070700038C0000036C0000034C0000032C000003C
:1070800030C000002EC000002CC000002AC000004C
:1070900028C0000026C0000024C0000022C000005C
:1070A00020C000001EC000001CC0000011241FBE34
:1070B000CFEFDAE0DEBFCDBF11E0A0E0B1E0E6E463
:1070C000FFE702C005900D92A43BB107D9F711E08C
:1070D000A4EBB1E001C01D92AD3CB107E1F74FD385
:1070E00030C78ECFF89410926F001092810081E02B
:1070F00085BF15BE47985D9A289A0C9400000895A4
:107100001F920F920FB60F9211242F938F939F937C
:10711000EF93FF9310928500109284008091B40148
:107120009091B501009741F001979093B50180933C
:10713000B401892B09F45D9A8091B6019091B70151
:10714000009741F001979093B7018093B601892B86
:1071500009F4289A8091BA019091BB01019690930D
:10716000BB018093BA01E0E0F0E0859194918F5FDC
:107170009F4F49F08091B8019091B9010196909389
:10718000B9018093B801FF91EF919F918F912F9159
:107190000F900FBE0F901F90189584E08093E90028
:1071A0000DC08091E8008B778093E80003C08EB318
:1071B000882351F08091E80082FFF9CF8091E800A8
:1071C00085FFEFCF8091F1000895982F83E08093A1
:1071D000E9008091E80085FD0DC08091E8008E7780
:1071E0008093E80003C08EB3882369F08091E800A3
:1071F00080FFF9CF9093F1005D9884E690E0909342
:10720000B5018093B40108954F925F926F927F927F
:107210008F929F92AF92BF92CF92DF92EF92FF92A6
:107220000F931F93CF93DF9384E08093E9008091C5
:10723000E80082FF57C2289884E690E09093B70157
:107240008093B601AADF182F853481F48CE49DE188
:107250009093B9018093B80107B600FCFDCFF9996E
:10726000FECF81E180935700E89503C0843519F47F
:1072700094DF8DE00DC28C34E1F38035D1F3843797
:1072800021F484E4A2DF80E003C2813611F489E5B1
:10729000FFC18134B1F481DF182F7FDF90E0880FC8
:1072A000991FAA2797FDA095BA2F312F330F20E001
:1072B000442737FD4095542F822B932BA42BB52BBD
:1072C000B8C1803711F483E5E3C1833549F4C0E0E8
:1072D000D1E089917ADF21E0C730D207D1F7D9C157
:1072E000863521F481E371DF80E3D2C1833731F445
:1072F00087E86BDF85E969DF8EE1CAC18536B9F4BD
:10730000E0E0F0E093E085E090935700E89507B661
:1073100000FCFDCF80935700E89507B600FCFDCF39
:10732000E058FF4FA0E7E030FA0771F7A2CF8237AD
:1073300039F4E1E0F0E089E0809357008491A8C13E
:10734000863439F4E0E0F0E089E0809357008491DE
:107350009FC18E3439F4E3E0F0E089E08093570078
:10736000849196C1813539F4E2E0F0E089E08093C0
:10737000570084918DC1823631F489E526DF80E0A3
:1073800024DF80E885C1823419F0873609F0E5C032
:107390001092B9011092B80100DF082FFEDEF82E1E
:1073A000FCDE682E8554823008F071C1902F80E099
:1073B000CF2DD0E0C82BD92B10926F00173609F0D3
:1073C0004BC081E180935700E895DD24CC24C39421
:1073D0003FC0E090BD01F090BE010091BF0110914F
:1073E000C001B6E46B16D9F4ED2DF0E0EE29FF29CB
:1073F000E4918E2FEADEDD2081F082E090E0A0E0D3
:10740000B0E0E80EF91E0A1F1B1FE092BD01F092CA
:10741000BE010093BF011093C001DC2418C0D80145
:10742000C701B695A7959795879575D5CEDE82E06D
:1074300090E0A0E0B0E0E80EF91E0A1F1B1FE092EA
:10744000BD01F092BE010093BF011093C0012197CE
:10745000209709F0BECF7DC08090BD019090BE0105
:10746000A090BF01B090C00196E4691609F05DC01C
:1074700083E0F40180935700E89507B600FCFDCF48
:1074800054C0F6E46F1661F5772031F1E090BD014C
:10749000F090BE010091BF011091C0017EDED82E98
:1074A000CC24852D90E08C299D29F7010C01409278
:1074B0005700E895112482E090E0A0E0B0E0E80EEB
:1074C000F91E0A1F1B1FE092BD01F092BE0100933E
:1074D000BF011093C00102C060DE582E742423C087
:1074E000E090BD01F090BE010091BF011091C0017C
:1074F00016950795F794E79450DE682FC70113D5CA
:107500008091BD019091BE01A091BF01B091C001D9
:107510000296A11DB11D8093BD019093BE01A09361
:10752000BF01B093C001219704C05524772444249F
:107530004394209709F0A5CF96E4691641F485E0BD
:10754000F40180935700E89507B600FCFDCF8DE06D
:107550003CDE82E080936F009CC0833471F4009124
:10756000BD011091BE0119DE90E021E0F8010C018F
:1075700020935700E89511247CCE833619F5E090CE
:10758000BD01F090BE010091BF011091C00105DE68
:10759000F701E16090E021E00C0120935700E895AD
:1075A000112482E090E0A0E0B0E0E80EF91E0A1F8E
:1075B0001B1FE092BD01F092BE010093BF0110932A
:1075C000C00157CE8D3661F4E091BD01F091BE014E
:1075D00085E080935700E89507B600FCFDCF49CEC3
:1075E000823551F4E091BD01F091BE0105911491F5
:1075F000812FEBDD802F4CC0843421F5E090BD015C
:10760000F090BE010091BF011091C0011695079541
:10761000F794E794C2DD682FC70185D48091BD013E
:107620009091BE01A091BF01B091C0010296A11D31
:10763000B11D8093BD019093BE01A093BF01B09393
:10764000C00117CE843609F5E090BD01F090BE016F
:107650000091BF011091C001D801C701B695A7954F
:107660009795879558D4B1DD82E090E0A0E0B0E036
:10767000E80EF91E0A1F1B1FE092BD01F092BE0129
:107680000093BF011093C00104C08B3111F08FE350
:107690009CDD83E08093E9009091E8008091E80010
:1076A0008E778093E80095FF04C010C08EB38823C6
:1076B000C9F08091E80080FFF9CF8091E8008E77D3
:1076C0008093E80003C08EB3882361F08091E800C6
:1076D00080FFF9CF84E08093E9008091E8008B7708
:1076E0008093E800DF91CF911F910F91FF90EF9071
:1076F000DF90CF90BF90AF909F908F907F906F90D2
:107700005F904F9008959091C501892F8F778132B6
:1077100049F58091C6018032A1F0813219F5913A84
:1077200009F58091E800877F8093E8008CE091E084
:1077300067E070E027D28091E8008B778093E800C3
:107740000895913279F48091E800877F8093E80072
:107750008CE091E067E070E079D28091E8008E776C
:107760008093E800089582E061EC42E0D1D083E0AC
:1077700061E842E1CDD084E060E842E1C9C01F93F6
:10778000209100081092000844B714BE88E10FB69B
:10779000F89480936000109260000FBE80E8E0E0F3
:1077A000F0E00FB6F89480936100E09361000FBEA3
:1077B00031E035BF92E095BF3F9A209A559A809369
:1077C00061001092610047985D9A289A1092890092
:1077D0008AEF8093880090936F0083E0809381000C
:1077E000859194918F5F9F4F11F03093BC01942F3E
:1077F00041FF19C0809109012817A9F08093000862
:10780000789480911301882339F08091BA01909186
:10781000BB018F5E9240C8F3F8941092000881E09B
:10782000809313010CC090FF04C08091BC01882399
:1078300051F493FF09C080910901281729F0809124
:10784000BC01882309F04EDCD4D078941092B901A1
:107850001092B8011EEF20C0D7DC4BD38091B80145
:107860009091B90181549F4110F0109213018091C1
:10787000C1019091C20101969093C2018093C10110
:10788000292F97FF03C0512F591B252F220F28178F
:1078900010F4479801C0479A809113018823E1F6BC
:1078A0008091E00081608093E0001CDC80E090E04B
:1078B0001F910895FA01923049F0933061F09130B0
:1078C000F9F484E191E022E130E01EC086E291E02B
:1078D0002EE330E019C0882329F484E691E024E007
:1078E00030E012C0813029F488E691E02EE130E0EA
:1078F0000BC0823029F488E891E02AE230E004C02D
:1079000080E090E020E030E091838083C901089519
:107910008093E9008091EB0081608093EB001092EE
:10792000ED006093EC004093ED008091EE00881F25
:107930008827881F08958091C50188238CF403C08F
:107940008EB38823B1F08091E80082FFF9CF809157
:10795000E8008B778093E80008958EB3882349F080
:107960008091E80080FFF9CF8091E8008E778093C6
:10797000E8000895EF92FF920F931F9345D04CD0EB
:1079800008ED10E0F80180818F7780838081806826
:10799000808380818F7D808319BC1EBA1092C301C1
:1079A00080EEE82EF12CF70180818B7F8083F80137
:1079B00080818160808380E060E042E0A9DFE1EEC9
:1079C000F0E080818E7F8083E2EEF0E08081816054
:1079D0008083808188608083F70180818E7F8083AF
:1079E000F8018081806180831F910F91FF90EF905B
:1079F0000895E7EDF0E08081816080838AE482BFB2
:107A000081E08093C401B6CFE8EDF0E080818E7F05
:107A100080831092E20008951092DA001092E10043
:107A200008951F920F920FB60F9211242F933F9338
:107A30004F935F936F937F938F939F93AF93BF9376
:107A4000EF93FF938091DA0080FF1BC08091D800F4
:107A500080FF17C08091DA008E7F8093DA008091DA
:107A6000D90080FF0BC080E189BD82E189BD09B4E6
:107A700000FEFDCF81E08EBB3BD203C019BC1EBA15
:107A800037D28091E10080FF17C08091E20080FF33
:107A900013C08091E2008E7F8093E2008091E2002B
:107AA00080618093E2008091D80080628093D8004A
:107AB00019BC85E08EBB1CD28091E10084FF2CC0F4
:107AC0008091E20084FF28C080E189BD82E189BD08
:107AD00009B400FEFDCF8091D8008F7D8093D8003F
:107AE0008091E1008F7E8093E1008091E2008F7EA3
:107AF0008093E2008091E20081608093E2008091B7
:107B0000C301882331F48091E30087FD02C081E046
:107B100001C084E08EBBECD18091E10083FF21C0E5
:107B20008091E20083FF1DC08091E100877F8093F8
:107B3000E10082E08EBB1092C3018091E1008E7F54
:107B40008093E1008091E2008E7F8093E20080913B
:107B5000E20080618093E20080E060E042E0D8DEF5
:107B6000C7D1FF91EF91BF91AF919F918F917F917D
:107B70006F915F914F913F912F910F900FBE0F909A
:107B80001F9018959C014091CB015091CC01461754
:107B9000570718F4F90190E044C06115710511F020
:107BA000AB01F8CF8091E8008E778093E80040E049
:107BB00050E0F0CF8EB3882309F444C0853009F437
:107BC00043C08091E80083FF02C081E00895809166
:107BD000E80082FD31C08091E80080FF22C08091E2
:107BE000F3009091F200782F60E0292F30E0262BEF
:107BF000372B07C081918093F100415050402F5F97
:107C00003F4F4115510519F02830310598F390E0A8
:107C10002830310509F491E08091E8008E77809357
:107C2000E8004115510531F6992321F605C08EB3C0
:107C3000882341F0853041F08091E80082FFF7CF42
:107C400080E0089582E0089583E008959C01611525
:107C5000710529F48091E8008B778093E800F901A1
:107C600026C08EB3882391F1853091F18091E80090
:107C700083FF02C081E008958091E80082FFF1CF88
:107C800006C08091F10081936150704059F02091BD
:107C9000F3008091F200322F20E090E0822B932BB2
:107CA000892B79F78091E8008B778093E800611544
:107CB0007105B9F605C08EB3882341F0853041F0D7
:107CC0008091E80080FFF7CF80E0089582E008957A
:107CD00083E008950F931F93DF93CF9300D0CDB728
:107CE000DEB7E5ECF1E08091F100819381E0ED3CBD
:107CF000F807C9F708DD8091E80083FFE4C08091B0
:107D0000C5019091C601953009F46DC0963040F4DC
:107D1000913081F1913070F0933009F0D4C02AC0D5
:107D2000983009F4A3C0993009F4B2C0963009F034
:107D3000CAC07CC0803809F4C6C0823809F0C3C00C
:107D40008091C90187708093E9008091EB001092C7
:107D5000E9002091E800277F2093E80090E025E0EB
:107D6000969587952A95E1F781708093F10010929E
:107D7000F10087C0882319F0823009F0A4C08F7108
:107D8000823009F0A0C08091C701882331F520918D
:107D9000C901277009F497C02093E9008091EB0096
:107DA00080FF1BC0933021F48091EB00806213C0F0
:107DB0008091EB0080618093EB0081E090E002C055
:107DC000880F991F2A95E2F78093EA001092EA0043
:107DD0008091EB0088608093EB001092E900809125
:107DE000E800877F51C0882309F06DC01091C7015A
:107DF0001F770FB7F8948091E800877F8093E800A1
:107E00009ADD8091E80080FFFCCF8091E3008078CC
:107E1000812B8093E30080688093E300112311F4A9
:107E200082E001C083E08EBB0FBF4DC0805882301E
:107E300008F049C08091C7019091C8016091C901C3
:107E4000AE014F5F5F4F36DDBC01009709F43BC0C8
:107E50008091E800877F8093E80089819A8192DE93
:107E60008091E8008B778093E8002DC0803859F529
:107E70008091E800877F8093E8008091C301809320
:107E8000F1008091E8008E778093E80054DD1BC0FC
:107E90008823C9F49091C7019230A8F48091E8003A
:107EA000877F8093E8009093C30145DD8091C301F3
:107EB000882331F48091E30087FD02C081E001C096
:107EC00084E08EBB50DC8091E80083FF0AC0809183
:107ED000EB0080628093EB008091E800877F8093C5
:107EE000E8000F900F90CF91DF911F910F910895AF
:107EF00008951F938EB3882361F01091E9001092CA
:107F0000E9008091E80083FF01C0E4DE1770109360
:107F1000E9001F910895F999FECF92BD81BDF89AAD
:107F2000992780B50895262FF999FECF1FBA92BDE3
:107F300081BD20BD0FB6F894FA9AF99A0FBE01964A
:107F40000895F894FFCF4341544552494E4100777C
:107F500000080000000000000801120110010200EA
:107F600000084F1B059201000201000109023E00BA
:107F70000201008032090400000102020100052410
:107F800000100104240204052406000107058203F1
:107F90000800FF09040100020A00000007050402AE
:107FA00010000107058302100001040309041E03E9
:107FB000500072006F0020004D00690063007200E5
:107FC0006F002000350056002000200000002A032A
:107FD00053007000610072006B00460075006E0077
:107FE000200045006C0065006300740072006F00A3
:107FF0006E006900630073000000FFFFFFFFFFFFDA
:00000001FF
